:020000040000fa
:080000000002040000000000f2
:020000040000fa
:040008007a04000076
:020000040000fa
:04000c007a04000072
:020000040000fa
:040010007a0400006e
:020000040000fa
:040014007a0400006a
:020000040000fa
:040018007a04000066
:020000040000fa
:04001c007a04000062
:020000040000fa
:040020007a0400005e
:020000040000fa
:040024007a0400005a
:020000040000fa
:040028007a04000056
:020000040000fa
:04002c007a04000052
:020000040000fa
:040030007a0400004e
:020000040000fa
:040034002e03000097
:020000040000fa
:040038007a04000046
:020000040000fa
:04003c007a04000042
:020000040000fa
:040040007a0400003e
:020000040000fa
:040044001a0400009a
:020000040000fa
:040048005a04000056
:020000040000fa
:04004c007a04000032
:020000040000fa
:040050007a0400002e
:020000040000fa
:040054007a0400002a
:020000040000fa
:040058007a04000026
:020000040000fa
:04005c007a04000022
:020000040000fa
:040060007a0400001e
:020000040000fa
:040064007a0400001a
:020000040000fa
:040068007a04000016
:020000040000fa
:04006c007a04000012
:020000040000fa
:040070007a0400000e
:020000040000fa
:040074001a0300006b
:020000040000fa
:040078007a04000006
:020000040000fa
:04007c007a04000002
:020000040000fa
:040080007a040000fe
:020000040000fa
:040084007a040000fa
:020000040000fa
:040088007a040000f6
:020000040000fa
:04008c007a040000f2
:020000040000fa
:040090007a040000ee
:020000040000fa
:040094007a040000ea
:020000040000fa
:040098007a040000e6
:020000040000fa
:04009c007a040000e2
:020000040000fa
:0400a0007a040000de
:020000040000fa
:0400a4007a040000da
:020000040000fa
:0400a8007a040000d6
:020000040000fa
:0400ac007a040000d2
:020000040000fa
:0400b0007a040000ce
:020000040000fa
:0400b4007a040000ca
:020000040000fa
:0400b8007a040000c6
:020000040000fa
:0400bc007a040000c2
:020000040000fa
:0400c0007a040000be
:020000040000fa
:0400c4007a040000ba
:020000040000fa
:0400c8007a040000b6
:020000040000fa
:0400cc007a040000b2
:020000040000fa
:0400d0007a040000ae
:020000040000fa
:0400d4007a040000aa
:020000040000fa
:0400d8007a040000a6
:020000040000fa
:0400dc007a040000a2
:020000040000fa
:0400e0007a0400009e
:020000040000fa
:0400e4007a0400009a
:020000040000fa
:0400e8007a04000096
:020000040000fa
:0400ec007a04000092
:020000040000fa
:0400f0007a0400008e
:020000040000fa
:0400f4007a0400008a
:020000040000fa
:0400f8007a04000086
:020000040000fa
:0400fc007a04000082
:020000040000fa
:040100007a0400007d
:020000040000fa
:040104007a04000079
:020000040000fa
:040108007a04000075
:020000040000fa
:04010c007a04000071
:020000040000fa
:040110007a0400006d
:020000040000fa
:040114007a04000069
:020000040000fa
:040118007a04000065
:020000040000fa
:04011c007a04000061
:020000040000fa
:040120007a0400005d
:020000040000fa
:040124007a04000059
:020000040000fa
:040128007a04000055
:020000040000fa
:04012c007a04000051
:020000040000fa
:040130007a0400004d
:020000040000fa
:040134007a04000049
:020000040000fa
:040138007a04000045
:020000040000fa
:04013c007a04000041
:020000040000fa
:040140007a0400003d
:020000040000fa
:040144007a04000039
:020000040000fa
:040148007a04000035
:020000040000fa
:04014c007a04000031
:020000040000fa
:040150007a0400002d
:020000040000fa
:040154007a04000029
:020000040000fa
:040158007a04000025
:020000040000fa
:04015c007a04000021
:020000040000fa
:040160007a0400001d
:020000040000fa
:040164007a04000019
:020000040000fa
:040168007a04000015
:020000040000fa
:04016c007a04000011
:020000040000fa
:040170007a0400000d
:020000040000fa
:040174007a04000009
:020000040000fa
:040178007a04000005
:020000040000fa
:04017c007a04000001
:020000040000fa
:040180007a040000fd
:020000040000fa
:040184007a040000f9
:020000040000fa
:040188007a040000f5
:020000040000fa
:04018c007a040000f1
:020000040000fa
:040190007a040000ed
:020000040000fa
:040194007a040000e9
:020000040000fa
:040198007a040000e5
:020000040000fa
:04019c007a040000e1
:020000040000fa
:0401a0007a040000dd
:020000040000fa
:0401a4007a040000d9
:020000040000fa
:0401a8007a040000d5
:020000040000fa
:0401ac007a040000d1
:020000040000fa
:0401b0007a040000cd
:020000040000fa
:0401b4007a040000c9
:020000040000fa
:0401b8007a040000c5
:020000040000fa
:0401bc007a040000c1
:020000040000fa
:0401c0007a040000bd
:020000040000fa
:0401c4007a040000b9
:020000040000fa
:0401c8007a040000b5
:020000040000fa
:0401cc007a040000b1
:020000040000fa
:0401d0007a040000ad
:020000040000fa
:0401d4007a040000a9
:020000040000fa
:0401d8007a040000a5
:020000040000fa
:0401dc007a040000a1
:020000040000fa
:0401e0007a0400009d
:020000040000fa
:0401e4007a04000099
:020000040000fa
:0401e8007a04000095
:020000040000fa
:0401ec007a04000091
:020000040000fa
:0401f0007a0400008d
:020000040000fa
:0401f4007a04000089
:020000040000fa
:0401f8007a04000085
:020000040000fa
:0401fc007a04000081
:020000040000fa
:040200007a0400007c
:020000040000fa
:040204007a04000078
:020000040000fa
:040208007a04000074
:020000040000fa
:04020c007a04000070
:020000040000fa
:040210007a0400006c
:020000040000fa
:040214007a04000068
:020000040000fa
:040218007a04000064
:020000040000fa
:04021c007a04000060
:020000040000fa
:040220007a0400005c
:020000040000fa
:040224007a04000058
:020000040000fa
:040228007a04000054
:020000040000fa
:04022c007a04000050
:020000040000fa
:040230007a0400004c
:020000040000fa
:040234007a04000048
:020000040000fa
:040238007a04000044
:020000040000fa
:04023c007a04000040
:020000040000fa
:040240007a0400003c
:020000040000fa
:040244007a04000038
:020000040000fa
:040248007a04000034
:020000040000fa
:04024c007a04000030
:020000040000fa
:040250007a0400002c
:020000040000fa
:040254007a04000028
:020000040000fa
:040258007a04000024
:020000040000fa
:04025c007a04000020
:020000040000fa
:040260007a0400001c
:020000040000fa
:040264007a04000018
:020000040000fa
:040268007a04000014
:020000040000fa
:04026c007a04000010
:020000040000fa
:040270007a0400000c
:020000040000fa
:040274007a04000008
:020000040000fa
:040278007a04000004
:020000040000fa
:04027c007a04000000
:020000040000fa
:040280007a040000fc
:020000040000fa
:10040000cf1421000eff24000e0188000000000020
:10041000000020000000e000020032000001200087
:100420002002880014000700a90107000000e00076
:1004300003003a00a0122300010020000200370050
:100440000000200001002000810f70000100320038
:100450000f000700000020000000e0000200320052
:100460000000020000000000a634020000000000ae
:100470000040da000000fe00e05920000000e0002b
:1004800002003200002020009001880000000600d9
:10049000a1028800800478000000eb001f003700f4
:1004a000e284440054a0b4009905ba00e2844400f8
:1004b00054a0b4009906ba00e284440054a0b400e9
:1004c0000006eb00476fde00fd07b200ae018800ba
:1004d000636ce10003003a000ad801000000eb0061
:1004e0000e003700606ce10008003a00004deb00a0
:1004f0000a05e800020039003420ec000af0a000f0
:100500008b05e900f9ff3e00040037006168e10057
:10051000010032000086eb000b00070019c7ba008b
:100520000e04e0001905ba0003003a000a00e000da
:10053000dbff3a0000000600fe07b200ae028800b2
:100540008a047800f5ff37000cd0a300e20f4d00bd
:100550001c00390089027800354dba000a05e80010
:10056000020039003420ec000af0a0008b05e900fd
:100570000f003200254dba000a05e80002003900dc
:100580003420ec000af0a0008b05e90008003200de
:100590000c00e0000600320015cdba000a05e800a4
:1005a000020039003420ec000af0a0008b05e900bd
:1005b0008984e80054a0b4000b00e000e2ff3a0098
:1005c000000006009902ba00055d78008b05e9007d
:1005d000f7ff3200c82ade00055d78008b05e900d0
:1005e000f3ff32000c00e000f1ff320019ddba0029
:1005f000eeff3700100d0400000000003c0d040069
:1006000000000000560d040000000000840d0400ee
:1006100000000000220f040000000000a2150400ea
:10062000000000000000040000000000b81d0400ed
:1006300000000000801f78000000fa002268a90076
:1006400000a62e001008880005e1a8000268a90095
:100650000080fa004f007800004006003600f800e5
:10066000809fbe00829fbe00849fbe00869fbe000a
:100670000000fa0005e1a9002268a8004818070058
:10068000d0808800d0808000e20f5000300032001f
:10069000e30f500003003200e10f5000420032002f
:1006a0005c003700f080800000f0a7000000ea0046
:1006b0000000e9004f00de00f0808800f08080003c
:1006c000e10f50004e003a00e08080000000e000a2
:1006d00005003a0010002000e0808800a0882a0071
:1006e000970407004b003700e0808000e10f5000c6
:1006f00005003a0020002000e0808800508b2a008e
:100700008f04070043003700e0808000e10f5000b5
:100710000c0034001c30ef004280800053808000c9
:100720002080800031808000829fbe00809fbe00bc
:10073000108e2a00801f7800c7040700ea87570040
:100740003400370080922a007d0407003100370012
:10075000e0808000e20f500008003a0040808000f6
:10076000518080000200200003f82300d900070018
:10077000408088005180880026003700e08080009b
:10078000e10f500020003a0020808000318080007e
:100790000200200003f82300ce000700208088001c
:1007a000318088001b003700e0808000e20f50009d
:1007b00008003a0040808000518080000200200044
:1007c00003f82300c400070040808800518088009f
:1007d00010003700e0808000e10f50000c003a006c
:1007e00020808000318080000200200003f8230078
:1007f000b90007002080880031808800050037009c
:100800000000000003003700000000000100370076
:10081000000000000068a9000080fa004f03be003d
:100820004f02be004f01be004f00be003600f9006f
:10083000004006003600f800809fbe00829fbe0088
:10084000849fbe00869fbe000000fa0011e1a80050
:10085000108180000000e00006003a00e415070067
:1008600031818000b00220008088b90060088800d3
:10087000080037006c1607003181800050fd2f0002
:100880008088b90080007800c00c21000080400002
:100890006008880000e8a9000080fa004f03be004d
:1008a0004f02be004f01be004f00be003600f900ef
:1008b000004006003600f800809fbe00829fbe0008
:1008c000849fbe00869fbe000000fa0013e1a800ce
:1008d000831407000108a9000080fa004f03be003e
:1008e0004f02be004f01be004f00be003600f900af
:1008f000004006000040da000000fe000a00fa0096
:1009000011002000b1bf9f00c0bf9f006a80570048
:100910008f0907004fb897000080fa00000006001a
:100920000a00fa00e20f500034003e00308a8000d6
:10093000e10f500003003200e20f500011003a00b6
:100940000c003700032220000300e00001003a0001
:100950000040da002002e200020035002822ef0009
:1009600021e2a8002342ab000d003a002342a80078
:100970000b003700032320000300e00001003a00d1
:100980000040da003002e200020035003822ef00b9
:1009900031e2a8003342ab0001003a003342a80024
:1009a000820178000b0037003102fb00e10f50009c
:1009b00004003a002322ab00feff3a002411880015
:1009c000030037003322ab00feff3a00a411880079
:1009d0008301e9000300e000f3ff3a00e10f50005b
:1009e00003003a002302ab00feff32000b00370089
:1009f0003302ab00feff3200080037003300200056
:100a0000b3bf9f00c0bf9f00d1bf9f00e2bf9f0048
:100a10006a805700500907006fb9970002007800fc
:100a20000080fa00000006000a00fa0051002000d1
:100a3000b1bf9f00c0bf9f006a80570048090700f0
:100a40005fb897000080fa0000000600889fbe0093
:100a500080047800408a80000000e00004003a0032
:100a60000e0007000084eb000000e00008003500e5
:100a7000488a80000900e0000500320009004400b7
:100a8000060007000000e00001003d000084eb00cc
:100a9000080078004f04be000000060080007800c7
:100aa0000100e00003003a0000002000408a8800b6
:100ab000000005000080eb0002002000828f500043
:100ac00002003e00418a88000000eb0000000600a2
:100ad0000000050003f0a200889fbe008a9fbe00b0
:100ae0008c1f7800860007008d0033006450e10001
:100af0004f0032006420e1005200320003826c009b
:100b000007003b000905d0000306d000820f540007
:100b10000c065d00020039000200320089017800f5
:100b2000030678008582550004003d000003fd00a7
:100b30008103fd008502ea008b854200840f72006c
:100b400002003b0060001000e08018006011b80057
:100b50000005eb007a28e1000a0039000600780061
:100b6000c75ddd00f707b200878075002d003700f4
:100b7000828171000a017800610560008180d100e6
:100b80000080d3008502e900f9ff3b000604400025
:100b90008784480002003b0060041400e0841c00cd
:100ba0000988a300070032008a81710082817100e8
:100bb000610164008904d1000884d3008b05e8003a
:100bc000170037000978a30013003a000b00e0007b
:100bd000130034008b05e9000804440089844c00ac
:100be0000a4474000978a3000d003a000b00e000ed
:100bf000070034008b05e9000804440089844c0098
:100c000001003a000b0020000978a300f7ff320032
:100c10000001eb0002003700828171000a017800b8
:100c2000110007000cf0a70001f0a00045003700fc
:100c30006420e10002003a00838f6c00450033001d
:100c40000801be000200be003e0037001400200074
:100c500032023700f4ff2f00300237004f89de00e8
:100c60008201780069023700810020006180550010
:100c70000b003d000b00200061fe2f000100e10091
:100c80001d00340082817100610164008904d1007b
:100c90000884d3000000e800faff3a007100200049
:100ca000610064000300700002006000090032006f
:100cb00061044400e0844c000988a500050032006e
:100cc0008b05e8006808e10002003a008904d100c1
:100cd0000884d300f20f20000258e10005003d0017
:100ce000c75ddd00f907b200898075000800780053
:100cf000000006000bf827008b00780000000500bc
:100d00000004be00800207000003be000405be0010
:100d10000200be007c020700844f75000000060040
:100d20000200be006450e100050036006420e100ce
:100d3000020036000968a30001003a000800be0066
:100d40000160a0004f0678004f05be004f04be00b2
:100d500000000600f0ff2f00f1ff2700f9ff370029
:100d6000889fbe008a9fbe008c1f7800e4ff0700aa
:100d7000ebff330003866c006450e1002400320076
:100d80006420e100270032006150e10022003200bf
:100d90006120e100210032008b854200eb07b100a9
:100da0000134b800003ab8000804420089844a00bf
:100db000013ab8000030b8008880400009014a00bc
:100dc0000400330000004000818048000201490017
:100dd0008b05e900c909dd008301700001003200c4
:100de00013002000c814de004814dd004709de00af
:100df0001200b200c808de00088470009aff0700e5
:100e000001f0a1000cf0a70001f0a000cdff370019
:100e10006120e100cfff32000801be000200be00e9
:100e2000f7ff37006150e100fcff3a00c9ff3700cf
:100e30000c00fa00889fbe008a9fbe008c9fbe00f7
:100e4000afff07000206be00840578000200be0066
:100e5000020020008a01070005003a008b02b3005f
:100e6000120020008601070001003a00f8856d009d
:100e70000c01be00c60007000800be009b00320047
:100e80000b08a3009e003a000df0a7000be0a000a5
:100e900009f0a7000bf0a00009f0a1000801be00b6
:100ea000bb0007000bf0a6009500320001003c00db
:100eb0000bd0a0008acf7500b20033006000b800ec
:100ec0006250e10099003900a1003e000b28a30008
:100ed000a2003a000bf8a300060032000b58a30052
:100ee000a70032000801be00a90007000800be00ec
:100ef000940032000800be00b00007000004be00ed
:100f0000050578000bf0a7000b30a6000bf0a10040
:100f10005b079800324f200053f323004bff07007c
:100f200005003d000800be00120020000b02070073
:100f30000004be000a05e9004a0798006150b900a4
:100f400046ff0700008fbe000c01be0084ff0700b3
:100f50008d010700300798000100e00002003d000d
:100f600060001000e0801800f2ff2700820f5000a0
:100f7000e08f580064003e000c00be0082010700b4
:100f800020079800f2072000820f5000e08f5800e1
:100f900005003c0012f82f00f3ff2f00820f5000d5
:100fa000838f580009003d000a00e0000300320072
:100fb00001003c000201ea00020578006000b80070
:100fc000200798003a079800190037003e0090006b
:100fd0006100b90021ff0700809fbe000c00be0029
:100fe0004109dd004811de007208b100240107004c
:100ff0000005be001e01be0059ff07004f01be00e4
:10100000b4fe0700809fbe000c00be000a01be00b7
:10101000b0fe07001e01be0051ff07004f01be00d9
:10102000adfe07008221270013f323004cff0700c9
:101030000005be002e0090006100b90007ff070008
:1010400001f0a2000c01be00a3fe07000006be00d6
:101050000800be00e30107000c01be0040ff0700ce
:101060000a01be009cfe0700809fbe004a000700e8
:101070002e0590000af0a7000a05ea0005003700d7
:101080000800be000801be0035ff07000004be00d6
:101090000c00be000801be000a00a70030ff0700d8
:1010a0000006be000a05d100f5ff3a005e0190007f
:1010b00002e0a600030037000001be003600070072
:1010c0004b0007000004be004f00be008a0007006e
:1010d0000801be0022ff07003e0190009f010700ab
:1010e000de0590000bf0a70001f0a2004f06be0045
:1010f0004f05be004f04be000080fa00000006004d
:1011000025000700f9ff3700270007006000b8003e
:101110000bd0a7000bc0a0000be0a7000bc0a200e3
:101120000bc0a70001f82700f0ff37000df8a3005f
:10113000020032001e000700190007000bf8a30090
:10114000eaff32000b30a70001f0a200e7ff3700f2
:101150000df8a300f9ff3a00f7ff37000801be00c1
:101160000b000700e6ff320001003c000df0a2007a
:101170006000b8000df0a70009000700dbff370092
:101180000b000700f1ff2700f0ff2f00d7ff37000b
:1011900001000700adfe370001f823000000050044
:1011a00001f82700000005002002200001003700a0
:1011b0001002200040818800000006000003be00ed
:1011c000510107006220e100020032000600be006b
:1011d00005000500e507b100f107b20004f02300a7
:1011e0008480700007f0a70001f0a0002400050033
:1011f000889fbe008a9fbe008c1f7800c0fe07003b
:10120000c7fe330003866c006450e1002e003200fc
:101210006420e100330032006150e1002f00320011
:101220006120e1003100320085855500eb07b000f8
:1012300009002000080420000500370008044400cd
:1012400089844c000a0031000603430087834b0069
:101250000001530081815b00f8ff33000203be00f0
:101260000800a0000804440089844c00f6ff3900ff
:10127000c639dd0083017300010032001300200035
:101280008904d1000884d3000998a3000500320026
:101290000800a7000300a0008904d1000884d3003f
:1012a0008b05e8008904d1000884d3000001eb001d
:1012b0000281d2006cfe070001f0a1000cf0a70033
:1012c00001f0a0009ffe37006420e100a1fe320083
:1012d0000801be000200be00f7ff37006120e100f8
:1012e0009cfe32006000b800f3ff370000002000d1
:1012f00001f82700f0ff3700889fbe008a9fbe00dc
:101300008c9fbe000004be00ff0007000800be0066
:101310006420e10048003e005500320072212700a1
:10132000132b24004bfe070047003c000800be00c2
:10133000c2ec2800e32c2c0044fe070047003500d7
:101340000800be0001f0a1000200200003382300c5
:101350003efe0700430035000800be00b2a32a008d
:1013600083fb23007efe07000200200003f0230021
:1013700001f0a70003f0a000d7fd070082000700de
:101380000005be0035fe070001f0a2000006be0009
:101390000200280013f3230071fe07000801be00bd
:1013a000cdfd0700809fbe000c00be003208280063
:1013b000e3952b006afe07004f01be00c6fd070043
:1013c0000006be000001be0065fe0700809fbe0053
:1013d0004241250083b8230061fe0700020020007f
:1013e00003e82300bcfd07000c01be005cfe070003
:1013f0000006be004f00be00f2f92b00c3d423004c
:1014000057fe07000200200003f02300b2fd070092
:101410000c01be00affd07000001be000c00be00c5
:1014200073ff07000200200003f02300aafd07005d
:1014300061014500c90007004f06be004f05be0010
:101440004f04be000000060001f827000000200045
:101450002202200042818800f7ff37006000b800b8
:10146000fbff370001f8230000002000f2ff3700e7
:1014700009f8a300f0ff32006000b800eeff37006b
:10148000889fbe008a9fbe000003be009e0007002a
:101490008505780082815200020020006220e10070
:1014a00004003a00f307b100040035007718e100aa
:1014b000040035000600be00140037006000b800cc
:1014c0000f003700f50f2000faff2f008502d10032
:1014d0000a85d3008301e900fcff3b0081846200a0
:1014e00000046500890f7400f2ff32008582ea0073
:1014f0000a85ea008184620000046500dafd0700c5
:1015000007f0a70001f0a0000081eb000200e0005e
:101510004f05be004f04be0000000600889fbe00bd
:101520008a9fbe00841f7800f5fd07004f007800f9
:1015300011003300f0ff2f00838f6c0006003b008a
:10154000040565000a00a7000800370009f0a6009e
:101550001000200008003700820f5400838f5c00c9
:10156000030039001000200001003e0000002000b0
:1015700009f0a7000000ea004f05be004f04be00be
:101580000000e000000006000001be005e00070051
:101590000470a70003f0a1006509b1001600320035
:1015a0000d0035006828e10006003500f0ff2f002f
:1015b000f1ff27000300e00013003b0001002800ba
:1015c0000000050000004000818048008502e9001d
:1015d000fcff3a0008003700f88f420002003c0090
:1015e0008000eb00000005008100d1000080d300e6
:1015f0008502e800fcff3a000300e00002003b0027
:1016000060001000e080180000000600881f7800cd
:10161000030478000300e00007003d0060001000b4
:10162000e080180060011900e081190002003b0011
:1016300001f02d00030037000400070008f0a700a8
:1016400001f0a0004f04780000000600889fbe0053
:101650008a9fbe0000827000040271000482710043
:10166000260032000004be000200be006011b80077
:101670006b092000950220000182cf000a0039008a
:101680000541b1000082cf00070039000541b100db
:101690000982cf00040039000541b1000882cf0063
:1016a000010039000541b10005425200120032002c
:1016b0000a003b0082817100610164008100d10059
:1016c0000080d3008984d3000884d3008b05e80010
:1016d0000442e800f7ff3a0007003700080444001e
:1016e00089844c0000004800818048008b05e90097
:1016f0000442e900f9ff3a005bfd07004f05be0018
:101700004f04be0000000600c70ade00f107b20069
:10171000f50fb20008003200e1cf420002003200b3
:101720000170a00024000500810f7000010032004c
:101730000408050044000500810f700002003a0013
:10174000140005008502e9000000400081c0480047
:10175000fcff3b000170a000240005000003be0058
:10176000e9ff07006220e100020032000600be002f
:101770000000060085024100e30f20000328e1007d
:1017800005003c00a3fe2f000328e10007003d00f8
:101790000500200001003700f50f20002002200086
:1017a000408188006000b800080037001300200066
:1017b0008381520005003d008100d1000080d300ec
:1017c0008301e800fcff3a0005002000c72add0085
:1017d000f107b2008580700007f0a70001f0a000bb
:1017e00000000600889fbe008a9fbe008c9fbe003e
:1017f00072fe0700850478000005be006420e10049
:1018000049003e006220e10003003200090035007b
:101810000bf8a300440032000bf8a30008003200cc
:101820001002200040818800f0ff2f00f1ff270008
:101830003d00370001f82f00000020003a0037007b
:101840003d000700a3fc07000006be000a00be0022
:10185000324f200053f32300fefc07000600340043
:101860000c00be00340007009afc07000006be0012
:101870000a00be00020037008904e9000c00be0027
:101880002d00070036fd07002b00070092fc070023
:101890000001be000c00be0055fe07000005be00a2
:1018a0000001be002efd07000006be00a2f32300cb
:1018b000430d2c0088fc0700809fbe000c00be007a
:1018c000d2e32700d3f02b0025fd07004f01be0017
:1018d00047fe07000006be000a01be0020fd07000b
:1018e0000a01be007cfc07000006be006148b9008a
:1018f000dafc07000005be0032082800e3952b0043
:1019000017fd07000c01be0073fc07000006be00b7
:101910000a00be000200280013f3230010fd070098
:101920000c01be006cfc07004f06be004f05be0058
:101930004f04be000000060003f023000200050073
:10194000210521009b010700800078000080eb004a
:101950000100e0000400350021052100a000200066
:10196000080007004f80de000000060080007800bd
:10197000010178003104e000fdff3a000000510051
:1019800000000600889fbe008a1f78000004be0089
:10199000c900900069009000808f50000600390057
:1019a000090078005b020700800078000080eb00ef
:1019b0000100e0001700350008457800490090005c
:1019c00008587800c00498001900780000b8a300f7
:1019d00004003a0000a8a30008003200ea4f5400b7
:1019e00006003a00090078003701070080007800ff
:1019f0000080eb000100e00006003a0000c020007b
:101a0000190060000200320049009000e0049800d4
:101a10000a80fb004f0578004f04be00000006005e
:101a2000889fbe00000478000100780082047800de
:101a3000880178000901780011002000a501070045
:101a4000890f5000010032000004eb00080078000c
:101a50004f04be00000006000000fa00e8815700b5
:101a60004fb997002105210000d120000a09070085
:101a70000080fa0000000600889fbe008004780005
:101a80000203be00010478006149b800898fd200ca
:101a90008381d200080278000600be0032050700ec
:101aa000088044004f04be0000000600881f780034
:101ab0000204780008017800f901070008004000de
:101ac0004f047800000006000000fa00881f78002c
:101ad000000478006a825700bfb9970008017800b7
:101ae000c1d3200060d52000160007000000e000f0
:101af0000200350000044400004ceb004f04780065
:101b00000080fa0000000600889fbe0000047800f4
:101b10000203be0081047800080278008901780081
:101b2000120020000600be0047030700890f500086
:101b3000010032000004eb00080078004f04be00f2
:101b4000000006006800fa00889fbe008a9fbe0061
:101b5000800478000104780082057800030578008d
:101b60008400780000f92f000f00400034030700c4
:101b7000d98f9f00fb8f9f000000eb00a09f9f006c
:101b8000e88f9f009a84fb000904fb008904ea00a7
:101b9000cf4cde0050022000800f54000d003200b8
:101ba000e18f54000b003a00090178008a007800a8
:101bb0007f889700df89970003000100f08f9f0066
:101bc0000000e000950032002f9897000000e80028
:101bd000a09f9f000905450050022000800f54007f
:101be000040032000800e000e6ff3a002f9897005a
:101bf0008b0037000000eb00809f9f00f0979f0054
:101c0000e0979f00d0979f00c0979f00b0979f00dc
:101c100007003700e11121000100500000004000e2
:101c200021112100808040004f9897001100700022
:101c3000c09f9f000a04780008057800ba44780025
:101c40008900fb00e01121009c0107000000e0007a
:101c5000f0ff3a00a1c2b30081cf54000e003a0059
:101c60008f8897000180e900808f9f001000780026
:101c7000b09f9f000000e00005003d000000ea006a
:101c8000b09f9f004f9897000020a000c09f9f002a
:101c90000804e80010003700b09f9f00880078001b
:101ca0000000eb0005003700f3ff2700830f500012
:101cb00002003200ea00b90000004100010478008f
:101cc000880078003101fb000203b100e90f5100e8
:101cd000f5ff3600b09f9f00e0c2b300984f1000a0
:101ce000020032000080eb0019003700a0c2b300f0
:101cf000d84f100007003a008f8897000180e90054
:101d0000808f9f0010007800909f9f000804e800db
:101d1000100037000000eb00909f9f0088007800c3
:101d200005003700f3ff2700830f50000200320048
:101d3000ea00b90000004100010478008800780042
:101d40003101fb000203b100e90f5100f5ff36003d
:101d5000909f9f00984478008900fb00a01021000c
:101d6000560107000000e000020032000804e8000d
:101d7000010037008044eb00a97f9f0080c6b300bc
:101d800080cf540006003a0098cf140010003a00ab
:101d900066405000a07f9f000804e8000c00370058
:101da000c0c6b30080cf540009003a0098cf140099
:101db00007003a0067404000d84f100002003a0088
:101dc0006e4050000100370010c7b300a07f9f0095
:101dd0001801fb00c3fb2f008f81410001f92f0088
:101de0008f80400020f92f000f0040002f080700cf
:101df0000000e00009003a00c1fb2f008f80400086
:101e000020f92f000f004000b30107000000e000a0
:101e1000020035000805e8005aff37000080eb009b
:101e20004f05be004f04be000080fa00000006000f
:101e300003027800820178000101780041d8200077
:101e400040ff3700889fbe00000478000100780042
:101e500082047800880178000901780011002000d0
:101e60009c000700890f5000010032000004eb00c5
:101e7000080078004f04be00000006000000fa00d1
:101e8000e88157004fb997002105210020f220007a
:101e9000010807000080fa000000060080027800b8
:101ea00001037800110009000203d80080017800c6
:101eb000830a78008299b900820053009102980049
:101ec0000500780000000600889fbe008a1f780089
:101ed000000478000800e0000d003a00080a210024
:101ee000700544008004eb00580078000000e0001a
:101ef00004003200f4ff07000000e00001003d0094
:101f00008084eb008a0f5400f7ff3a002500370069
:101f100000002200180060008004eb002100320065
:101f2000a80490000f0037000901510038409000cc
:101f30000000fb008900780079fa07000000e0004b
:101f400007003c00280090004004980060049800be
:101f5000500c98001890a0008084eb00110037000e
:101f60008084440048019000828f5400eeff3900c5
:101f700028009000400498009800780002c02000db
:101f80000281600001003a003800900001e8a300df
:101f9000020032006004980001003700500c9800e5
:101fa0008004eb00090078004f0578004f04be0064
:101fb00000000600889fbe008a9fbe008004780053
:101fc000010478002c003700c800900068009000e1
:101fd000808f50000400390008007800cd00070011
:101fe0000000e000370035000040200018006000cd
:101ff00009003200a100200009007800bb000700a2
:10200000800578000b00e0000300320061851400b9
:102010000a854500040037000900780053fe0700d8
:10202000000578008005eb0048009000e800900073
:10203000808050008a8f5000020031000105780036
:102040008005eb000a017800890078009400070001
:10205000480090000a004000400498000b00e00097
:10206000040032000800780097ff07000000e0003d
:1020700014003a008a8444001904e000d2ff3a00b8
:102080000080200018006000060032000800780080
:102090008dff0700800078000080eb000100e00069
:1020a00009003a0001c02000988060000000eb00a9
:1020b0000500320048009000600498000000eb002a
:1020c000010037000080eb004f05be004f04be004a
:1020d00000000600889fbe008a9fbe008c9fbe0045
:1020e0008e1f780000067800010478000200780056
:1020f000830478008881b900020778000e00e000b0
:10210000420032000800e000410032008e057800f5
:10211000c900900069009000808f500004003900d1
:10212000090078007b0007000000e000290035006e
:1021300000402000190060000a0032000b01780006
:10214000a10020000c0078004b00070080067800fa
:102150000d00e00006003200610516000a85460009
:10216000040037000b0578008006eb000100370003
:102170000b05780049009000e90090008080500035
:102180008a8f500002003100010578008006eb00c4
:102190000a0178008c007800410007008a8555000c
:1021a000490090000a004000c00498000d00e000c3
:1021b000040032000900780043ff07000000e0003f
:1021c00004003a000b00e000020032000a0646005c
:1021d000cfff3700008020001900600002003200ad
:1021e0000900780038ff070000c0200019006000d7
:1021f0000200320049009000e00498008b0557006f
:10220000110009008885d800010037000000eb00ac
:102210004f0778004f06be004f05be004f04be00ba
:1022200000000600881f78008a9fbe008c9fbe00b9
:10223000000478000205be000406be000401be00d2
:102240000a00be00f0030700008cbe000c01be00b7
:10225000170507000005550081855d002a049800d8
:102260003b049800080078004f06be004f05be00f2
:102270004f0478000000060003003700b0cf1000c4
:10228000050032000201e900800178000200e00050
:10229000faff3a0000000500030078000000060085
:1022a0008001780002003700b15978000201e9008e
:1022b0000200e000fcff3a000000060002003700c8
:1022c0000304e000060032000001780002007800fc
:1022d000b041780081cf5100f9ff3a00010037008a
:1022e0000001eb0002007800000006000001eb0096
:1022f00000027800b041780081cf510001003a001f
:10230000040178000304e000f9ff3a0002007800bd
:1023100000000600889fbe008a1f78000004780035
:10232000c8009000680190000000eb00828f500010
:102330003c003900180078002200290002016000ea
:10234000e20f510007003200012020000000e000f1
:102350000100350001202400008c70000080eb009b
:10236000300037000200260002006000820f50009b
:1023700009003a0038009000808f500006003900b4
:1023800008007800d0fe0700800078000080eb0095
:102390000100e00023003a001805780000c020008a
:1023a0000000650018003a00a804900060022000b8
:1023b00008004000808f540013003a0000202000e5
:1023c000af020700200498000000e00005003a007a
:1023d00029049800490498008904e8003904980009
:1023e000080037000a60a0000a0c7800400498003a
:1023f000012020008080400031049800400c9800ab
:10240000500c98007e0107002800900050049800ae
:10241000380090006004980000002600180c70003e
:102420000000eb004f0578004f04be0000000600de
:10243000889fbe0000047800e68440001900d000a8
:102440004500de00f27f2000820f500010003a00ad
:10245000000ceb00990478006f81640020002000dc
:102460001b003a00210190000200e00018003a0031
:10247000110190000200e00015003a001000200059
:102480001100e00012003200200020001000370090
:102490000000e00004003a0001007800c7010700d6
:1024a0000000e00008003c00f20028001901610073
:1024b00001fe2300810c710021c02f00010c40009f
:1024c0000080eb0002003700000ceb000000eb0086
:1024d0004f04be00000006000400fa00889fbe0002
:1024e0008a9fbe008c1f78000004780001067800e7
:1024f000a8149000280890008084540038089000a8
:10250000808454004808900080845400580890004b
:1025100080845400680890008084540078089000fb
:10252000808454000002220090bf9f00000323001b
:10253000a0bf9f00381090000028a30015003a00ab
:102540000900e00013003400090578008a057800ce
:10255000e20f5500010036002b002000c80190005a
:102560000b017800ee805700680090000300010026
:10257000600498000000e000aa00320018109000eb
:102580000b004000101498000b0555004240a900b4
:10259000eeff3c00280990000200e0000c0034002f
:1025a000c80190008c0078006800900003000100d2
:1025b000600498008080eb000000e0009a00320088
:1025c0009810900028089000008040001014980097
:1025d000380d90000a00e000110034008a057800f0
:1025e000e20f5500010036002b002000c8019000ca
:1025f0000b017800ec805700680090000300010098
:10260000600498000000e00086003200181090007e
:102610000b004000101498000b055500edff37002b
:1026200008699000c808900050c6b300804f510060
:1026300008003a000100e000150034005802900044
:1026400008099000980990006800900004000100bb
:10265000070037000100e0000d003400c8019000c1
:1026600001017800f800900068009000030001006c
:10267000600498008080eb000000e0006a003200f7
:1026800098109000480890000080400010149800b6
:10269000580d90000a00e000110034008a0578000f
:1026a000e20f5500010036002b002000c801900009
:1026b0000b017800ec8057006800900003000100d7
:1026c000600498000000e0005600320018109000ee
:1026d0000b004000101498000b055500edff37006b
:1026e000086990006808900051c6b300814f5100fe
:1026f0000d003a000000e0001c003400780190005a
:10270000c8089000010141006111b800828fd20019
:102710008381d20058029000800078006800900009
:1027200004000100090037000000e0000f00340041
:1027300078019000c808900081004100c801900015
:102740000001780068009000030001006004980018
:102750008080eb000000e000330032009810900011
:10276000680890000080400010149800780d9000d8
:102770000a00e000110034008a057800e20f5500dd
:10278000010036002b002000c80190000b017800ea
:10279000ec8057006800900003000100600498007e
:1027a0000000e0001f003200181090000b004000f5
:1027b000101498000b055500edff370038109000fd
:1027c0008000eb000028a300170032000900e000a1
:1027d0001500340009057800e28f5400010036002e
:1027e0002a002000c80190000a017800ee805700fe
:1027f0006800900003000100600498000000e00001
:1028000008003200181090000a00400010149800d0
:102810008a8454004240a900eeff3c008000eb0097
:10282000010037008080eb00010078004f0678003f
:102830004f05be004f04be000080fa0000000600f5
:102840000108780000000600e6874700889fbe0068
:102850008a9fbe008c9fbe008e1f780082bf9f00a3
:10286000040478008299b900f2b79f000200e000ea
:10287000590032000fb997000200e0005700320003
:102880000006be007fb79700c80090006800900067
:10289000808f500004003900080078009dfe07007a
:1028a0000000e0003b003500004020001800600000
:1028b0000a0032008e017800a20020000c00be0049
:1028c000d20107000005be0000807500070032003d
:1028d0008c0455008904e800050037008e04780058
:1028e0000a0020000b002000010037008e04780051
:1028f000480190006800900002005000890f5000cd
:1029000003003100800478000a0020000b00200042
:102910006111b800828fd2008381d2000902780051
:102920000c00be0090010700090757004800900006
:1029300009004000400498000a8575000400320038
:102940000800780060fd07000000e00011003a0078
:102950000e00e0000f0032006148b800808fd20006
:102960008180d2000000780000f0a1000c01d000ae
:102970008001d000030641004220a80081864e005d
:102980004200a9004220ae004200a8000c86d300fd
:10299000bdff3700008020001800600002003200f8
:1029a0000800780048fd070000c020001800600003
:1029b0000200320048009000600498007fb1970048
:1029c0000e0751000fb99700110009000287d800c7
:1029d00080017800010037008001eb0003007800df
:1029e0004f0778004f06be004f05be004f04be00e3
:1029f0006f00b10000000600205a2100620037007d
:102a0000881f7800281421001804e00003003a0011
:102a1000f9ff070020c0b300004c78004f04780095
:102a200000000600889fbe000004780008007800bf
:102a300025fd0700800478000004200018006000d5
:102a40000200320028009000a80007000000eb0000
:102a500020049800384090000004e0000500350094
:102a60000000fb00a5f707000000e00001003200b5
:102a70008084eb00181090000000e0000800320095
:102a8000e9f707000000e000010032008084eb005d
:102a900018109000950007000000eb00101498003b
:102aa0000008200018006000150032000001eb0053
:102ab0006000b8000202d000230a21000302420095
:102ac000940f140005003a00000040008180480087
:102ad000008041000008eb00060037006100400064
:102ae000e08048000201e800e80f5000e08f580045
:102af000f0ff3a00080078007c0007000e00370065
:102b0000000c780000c0eb00304498006002200008
:102b100008004000200498004004980050049800e9
:102b2000400c980060049800500c980070049800c5
:102b300076004400000c9800090078004f04be00a5
:102b400000000600881f78000004eb006140b80018
:102b5000e2ff2f00f3ff2f00d5020700020b210038
:102b600080004100110078000000e0000100320008
:102b7000acff07000804e800e80f5400f3ff3a0038
:102b80004f04780000000600010020000100e00072
:102b900009003200010080000100e0000600320060
:102ba0008100e900010088008100d000020080005f
:102bb000828040008008780000000600e6004000a7
:102bc0001101780005002800850261006f01610095
:102bd0008208780002003200120020001100370045
:102be000a0019000120020000300e0000d003a0058
:102bf000900190000300e0000a003a001000e0009d
:102c000008003a0036003700640340009608780058
:102c100080017800530b7800900978000408780050
:102c200070015100110278000400e000f6ff32004c
:102c30001300370064024000140378004f33de00b5
:102c4000838141008308730080017800d3037800fa
:102c5000cf3bde001403780006034300068a7300ae
:102c60001302780004024200100378004f33de00a4
:102c70008609720090017800038841000201e90092
:102c800091017800ef8f5100eaff36001000370005
:102c900080017800530378004f33dd001002d1002b
:102ca000040873006402400094037800cf3bdd0009
:102cb0001303d10086897300110378004f33dd00c0
:102cc0009401d100030a73009108d1000201e800c9
:102cd00091017800ff8f5100edff3e00ef88610009
:102ce0009188720002007800000006000000e000f9
:102cf0002f003200c0017800e38f51002c00360015
:102d00000308a3002a003a00018a80000100e000c5
:102d100002003200810f50000400310011009800c1
:102d2000008a8800160037008200780011019000a8
:102d30000200e00002003200800f5100faff39006b
:102d40001102780084824000850f5000180039007d
:102d5000808f520003003a0083084200010078008f
:102d6000070037000200e00003003200830140004a
:102d7000830f51000e003900120098009000980057
:102d8000900090000100e0000900320010014000b6
:102d9000828f500006003a00e21321000009eb0088
:102da0001001780011084100910090001100980076
:102db00000000600889fbe0000047800f1898000b2
:102dc0000100e00002003200010078000d00370031
:102dd000018a80000014210004003700910f540084
:102de000250036000180e800910090000100e0001d
:102df000faff3a0010003700920f54001e00360010
:102e00000280e800100178000200e000faff3a00ba
:102e100011017800018a80000014210004003700ad
:102e2000910f5400140036000180e80091009000da
:102e3000828f5000faff3a00298a8000888f540060
:102e4000010031008804780009007800360007008e
:102e50000000e00004003a00888f540005003200b2
:102e60008904d100f5ff3700091878009fff07009b
:102e7000d2ff37000000eb004f04be000000060048
:102e8000881f7800630440000800a1008000eb0068
:102e9000800f540021003600e30f540001003e0073
:102ea0004800200008007800c2ff07008000eb0007
:102eb0000000e000190032009000780091017800d5
:102ec00064815100880f510003003100110190000e
:102ed00002087800070037000881400002087800e7
:102ee000910190001301980010017800110914005d
:102ef00088087800100178000000eb000200e00074
:102f000004003200920190000300e0000100320052
:102f10000280e800f08988008180e80001007800e4
:102f20004f04780000000600800078000000eb00ed
:102f30000100e0000500340001007800c3f607003e
:102f4000e10f400001003a000000eb000000060025
:102f500000c0da000000060000c0da000000060031
:102f600000c0da00000006003400f8003200f8006b
:102f70000203be00820270008502720002f0a60009
:102f80008301e800a301880000f0a6008100e800aa
:102f9000910188001500b2000c0032001049780041
:102fa0000402e9001500320061014100020039000d
:102fb0003420ec000200280061004000f7ff3900d7
:102fc0003220ec0000002800f4ff370010097800e0
:102fd0000482e90009003200620141000200390068
:102fe0003420ec000200280062004000f7ff3900a6
:102ff0003220ec0000002800f4ff37003200f90016
:103000003400f9000601be00000006000300e000e5
:10301000070032009501800001d0fe0010427800c8
:1030200005d0fe000402fb00820f520011003200a6
:103030008301e9009501800001d0fe001042780074
:1030400005d0fe000404e000080032000002780011
:103050001000b00000026a004260af0000f0a00063
:103060000482d2000180b000e8ff37000000200099
:1030700001002000000006008f1fd1001002070091
:103080008f87e9000000e00000000600809feb0051
:103090000b0207008f87e9000000e0000000060037
:1030a0002800fa00889fbe008a9fbe008c9fbe0049
:1030b00003866b008f0007006400e10044003200cb
:1030c0006408e1004a0032006100e100460032007d
:1030d0006108e10049003200ec0647006000b800da
:1030e0003d02be003d03be00f48657006011b800eb
:1030f0003d04be003d05be007d0320000b003700ef
:103100000000a0008d06e900130032000402420016
:1031100085824a0006034b0087834b000000400075
:103120008180480002014900838149000802520061
:1031300089825a000a035b008b835b00f0ff3b002f
:103140000802420089824a000a034b008b834b002d
:103150008d06e900edff3a008482720086827200db
:10316000f707b200878272000100320015002000cc
:103170001e0490003e0b900006035400e63fb00092
:103180000368a300070032000000a7000500a000ac
:103190008301d1000281d3008180d3000080d3005d
:1031a0000603e8008301d1000281d3008180d300af
:1031b0000080d3000002eb000482d200210007004f
:1031c00003f0a1000cf0a70003f0a0005d003700a1
:1031d000640247006408e100570032003400be007a
:1031e0003401be00f6ff37006108e10052003200f2
:1031f0006011b8006000b800f1ff370003ff27003e
:1032000002002000fbff3700839f68000100e00000
:1032100002003d0060001000e08018000300e000a4
:1032200002003d0060011100e0811900100107005b
:103230004f00e00002003b0060001000e08018003a
:10324000000006001800200057002000080453006a
:103250000d003d000600200097fc2f000740e10014
:103260001e00340084827200610260008301d1007c
:103270000281d3008180d3000080d3000804e800dd
:10328000f8ff3a0047002000610460000504740064
:10329000040464000d00320061004000e08048003a
:1032a00060014900e081490003b8a5000700320031
:1032b0000603e8006538e10004003a008301d1000c
:1032c0000281d3008180d3000080d300f87f2000ea
:1032d0000830e10003003500080378006000b80002
:1032e0006011b8004433dd00f300b20083017300c5
:1032f00000000600680447000294be000094be006f
:10330000fc0447008694be008494be000900780047
:10331000b501070008007800b301070099007800a4
:10332000814f70000b003b000800be008d010700bc
:103330004f00b10003003700f3ff2700f2ff2f001a
:103340006110b9004f06be004f05be004f04be001d
:103350000080fa000000060081037800eaf8070008
:103360000001be006000b8000478a30013003a001a
:103370006220e10015003e000d0039008301d100fc
:103380000281d3008180d3008301d1000281d30068
:103390008180d3008301d1000281d3008180d300da
:1033a0000538b000c42add00f300b200838172004a
:1033b00007f0a70003f0a00000000600f3ff2700bd
:1033c000f2ff2f006110b900fbff370003ff270059
:1033d000f7ff37001400fa00889fbe008a9fbe00e6
:1033e0008c9fbe000004be000205be0068004700be
:1033f0000a90be000890be007b0107000070a70085
:103400000bf0a100304320009e0290008082520009
:10341000b0fe2f000028e10011003d00b0fc2f009d
:103420000028e100150034001e0990008e0890006d
:103430007e0090000501b0000201d1008180d30020
:103440000080d3008502e800fbff3a000b00e0009b
:10345000bcff3b0060001000e0801800b9ff37009f
:10346000f0ff2f00f1ff27000b00e000b5ff3b004d
:103470000100280000002000b2ff37006000b80003
:10348000b0ff37004f89de00820178007d013700f0
:103490002800fa00889fbe008a9fbe008c9fbe0055
:1034a00003866b0093ff07000028a30064003a0026
:1034b0000128a30068003a000008a30062003a0057
:1034c0000108a30066003a001e009000be089000ac
:1034d00081064000ed3fb100f4805700ee019000fe
:1034e000111ab8008e099000311bb8009e09900097
:1034f000311cb800511db800f48557004600070084
:10350000fe0190003a0007008b85e8003e000700ae
:103510008e09900040000700ee0190003400070083
:103520008b85e800380007008e09900040000700f6
:103530009e0990001b18b800890440000a854800c5
:10354000fe019000340007008b85e800380007007a
:10355000ee019000300007008e0990001b18b800a3
:10356000890440000a8548000a98a30008003a0030
:103570000402420085824a0006034b0087834b0009
:1035800008044c0089844c000a054d008d06e900b2
:1035900084827200850273004c3add00850272005d
:1035a0000100320015002000443ade001400b20091
:1035b0004538de00cb45dd000b007000c540de0065
:1035c000cb4ddd008b8070004549de00cb55dd0022
:1035d0000b017100c551de000d03780019ff0700d3
:1035e00003f0a1000cf0a70003f0a00055ff370086
:1035f0001b18b8008502400006834800e0834b009a
:1036000060044c00070037001b18b8000603400098
:1036100087834800faff37001b18b8008703400073
:1036200008844800e0844c0060054d00000006005e
:103630001b18b8000804400089844800faff3700ce
:103640000108a3003cff3a005800be000000000043
:103650005801be00e2ff37000008a30036ff3a0021
:1036600009047800f8ff370007f0a20016003700c1
:103670006022b800060220000000d0008180d20045
:103680000482d2008582d2000000a0000202520013
:1036900083825a00030031000202420083824a0002
:1036a0000000a1000603e900f3ff3a000000060055
:1036b000020ab900001bb9000200b80081004200f4
:1036c00081004300000006002800fa00889fbe0029
:1036d0008a9fbe008c9fbe0007067800878669001f
:1036e0000c003b00030478008704780008f0a10078
:1036f00009f0a100840f5000858f5800860f5900f3
:10370000890f5c00030033000cf0a20001003a00b6
:103710000cf0a100f7fe07006400e1005f0032003a
:10372000780147006408e100610032006c01470045
:10373000748557003200be001201be003a04be007c
:103740001a05be001e039000be0a900085035300b8
:1037500006003d000004fd008104fd000205fd009f
:103760008305fd008703ea00050378000df8a30038
:103770000400320060041400e0841c0060051d0099
:10378000e0851d006022b8007d0320000d38e100b7
:103790008006eb000b0039004433dd00f300b2007b
:1037a0008301730039003700848272000d027800b3
:1037b000e10664008b85d1000a85d3008984d3009b
:1037c0000884d3008703e900f7ff3b0008004000ae
:1037d000898048000a0149008b81490004003b00b0
:1037e00060001000e080180060011900e0811900fd
:1037f0000358a300090032008d8272008482720097
:10380000610260008301d1000281d3008180d30076
:103810000080d3000603e8001b0037000348a30024
:1038200017003a000600e000170034000603e90024
:103830000d00a300000048008180480002014900fb
:10384000838149000348a3000f003a000600e0000e
:10385000090034000603e9000000400081804800b0
:10386000020149008381490001003a000003eb0096
:103870000348a300f5ff32006022b80002003700c1
:1038800084827200618266006efe070003f0a10070
:103890000cf0a70003f0a000aafe37006401470067
:1038a0006408e10002003a000df8a300a2fe3a000d
:1038b00032007800b20078001201be00a1fe37008d
:1038c000889fbe008a9fbe008c9fbe000404be007d
:1038d0000605be00809fbe00829fbe00300007002c
:1038e000040678000800be000a01be002c00070094
:1038f000840678004f03be004f02be008d4f760055
:103900007fb0970013003300f0ff2f008b8f6b0008
:1039100006003b000d0666000c00a7000a003700f9
:1039200007f0a600100020000a003700880f5200a0
:10393000898f5a008a0f5b008b8f5b000300390070
:103940001000200001003e000000200007f0a7004a
:103950000000ea004f06be004f05be004f04be0047
:1039600000000600e48240001078a3000700320047
:10397000640240001178a3003400be001401be00b0
:10398000050032000330a700000006003500780073
:10399000b50078001501be000330a000000006004d
:1039a00005ff270005826100070032000428e100be
:1039b00001003200240005000600070001003a0063
:1039c000440005000408050002000700f9ff3a0062
:1039d000140005006f826100810270008502710091
:1039e00085027200000006005002be00e400500094
:1039f0005003be004439de00f700b200f37f200020
:103a000003016100090032000218e10016003a00cb
:103a10008501720083017300838173000008200018
:103a200015003a00400020001300370085017200a5
:103a3000830173008381730005003a0004a8be006f
:103a400006a8be00100020000b0037000201e900ac
:103a50000402420085824a0006034b0087834b0024
:103a60000748a300f9ff32000740a00004a8be00e9
:103a700006a8be0020002000800098009200980058
:103a800000000600881f7800030478000300e000af
:103a900007003d0060001000e08018006001190080
:103aa000e081190002003b0001f02d000300370007
:103ab0000400070008f0a70003f0a0004f047800fe
:103ac00000000600889fbe000082700004027100a2
:103ad000048271002400320036432000c50020001b
:103ae0008383cf000a0039000541b1008283cf00f3
:103af000070039000541b1008183cf00040039007f
:103b00000541b1008083cf00010039000541b100bb
:103b100085c353006022b800120032000a003b0047
:103b200084827200610260008301d1000281d300af
:103b30008180d3000080d3000603e8008743e800bb
:103b4000f7ff3a000700370000004000818048007e
:103b500002014900838149000603e9008743e90027
:103b6000f9ff3a00b7fd07004f04be000000060051
:103b7000889fbe00000478000203be008104780024
:103b80000802780089017800120020000600be00bb
:103b90002dfb0700890f5000010032000004eb00ec
:103ba000080078004f04be00000006006800fa001c
:103bb000889fbe008a9fbe008004780001047800c0
:103bc00082057800030578008400780000f92f0052
:103bd0000f0040001afb0700d98f9f00fb8f9f004a
:103be0000000eb00a09f9f00e88f9f009a84fb00dd
:103bf0000904fb008904ea00cf4cde0050022000db
:103c0000800f54000d003200e18f54000b003a0089
:103c1000090178008a0078007f889700df89970083
:103c200003000100f08f9f000000e00095003200cb
:103c30002f9897000000e800a09f9f00090545000d
:103c400050022000800f5400040032000800e00001
:103c5000e6ff3a002f9897008b0037000000eb003a
:103c6000809f9f00f0979f00e0979f00d0979f0054
:103c7000c0979f00b0979f00070037008113210075
:103c80000100500000004000c1122100808040006f
:103c90004f98970011007000c09f9f000a047800a1
:103ca00008057800ba4478008900fb0080132100e1
:103cb00082f907000000e000f0ff3a00a1c2b30063
:103cc00081cf54000e003a008f8897000180e900f0
:103cd000808f9f0010007800b09f9f000000e000e0
:103ce00005003d000000ea00b09f9f004f9897003c
:103cf0000020a000c09f9f000804e80010003700cb
:103d0000b09f9f00880078000000eb00050037009e
:103d1000f3ff2700830f500002003200ea00b900d1
:103d20000000410001047800880078003101fb00a8
:103d30000203b100e90f5100f5ff3600b09f9f006c
:103d4000e0c2b300984f1000020032000080eb0088
:103d500019003700a0c2b300d84f100007003a0086
:103d60008f8897000180e900808f9f001000780005
:103d7000909f9f000804e800100037000000eb004f
:103d8000909f9f008800780005003700f3ff270010
:103d9000830f500002003200ea00b9000000410029
:103da00001047800880078003101fb000203b100b3
:103db000e90f5100f5ff3600909f9f00984478006e
:103dc0008900fb00401221003cf907000000e000e0
:103dd000020032000804e800010037008044eb00d4
:103de000a97f9f0080c6b30080cf540006003a0030
:103df00098cf140010003a0066405000a07f9f004a
:103e00000804e8000c003700c0c6b30080cf54009f
:103e100009003a0098cf140007003a0067404000bc
:103e2000d84f100002003a006e40500001003700e9
:103e300010c7b300a07f9f001801fb00c3fb2f0039
:103e40008f81410001f92f008f80400020f92f0061
:103e50000f004000150007000000e00009003a00d4
:103e6000c1fb2f008f80400020f92f000f00400081
:103e700099f907000000e000020035000805e8009d
:103e80005aff37000080eb004f05be004f04be0014
:103e90000080fa000000060003027800820178002a
:103ea0000101780081db210040ff3700889fbe00c0
:103eb0008a1f7800000478008244780003057800a7
:103ec00030c5b30080cf5400490032000b003c00e5
:103ed0006c40500080cf54007b003c0000c0e900e3
:103ee00080cf540013003d0050c2b30080cf540077
:103ef000720032007c4040000700370070c6b300fb
:103f000080cf540007003c0000c0e90080cf54007f
:103f100008003d006440500080cf54006a003a0021
:103f20000400370030c7b30080cf540066003a0069
:103f30002f00370008699000c0c4b300804f5100c3
:103f400008003a00110178006800510080087800ec
:103f50009000900020019000b001900010007800c7
:103f600006003700110178006400510080087800d5
:103f70009000900010007800f7fc0700009cbe0045
:103f80000294be00b8009000280890000100e000f4
:103f900003003d0080004500d2c2b3000a00370094
:103fa000b81090000118a300030032008000450003
:103fb000b2c2b300040037000108a30005003200bc
:103fc0008000450002c2b300824878000000e8008b
:103fd000200c980028089000000545007a049800fd
:103fe0008900fb0008007800430007003e0037000e
:103ff0000869900050c6b300804f51001b003a0082
:104000001101780064005100800878009000900051
:1040100010007800000c9800110c98008811900096
:104020000300e00007003d008081eb000001eb0091
:10403000f6fb07000001be008808900081005100d7
:10404000080037000001eb00f0fb07000081700062
:104050000300320008099000820050000100370080
:1040600088109000410c98001f0037001180e90073
:1040700080087800100578007a0498008814900071
:104080000900e00004003d000a00780037f6070050
:104090008004780007003700090178008000eb00f9
:1040a0000a00780074f807000000e0000100320008
:1040b0008a045000490c98000b0037002808900033
:1040c0000005450005003700280890000005450060
:1040d0000904e00001003a0059c2b300094d78001c
:1040e0000000e800200c98000000eb004f0578006d
:1040f0004f04be00000006002f04b000889fbe00e1
:104100008a9fbe008c9fbe008e1f7800000778003b
:1041100081f79f001e0478009e0490002e059000f9
:10412000be0590000e1090000000e00002003d006f
:1041300060002000001798008e00780020fb2f0000
:104140000f004000baf80700e20f50000a003a00e2
:1041500030002000400f9800b1c9b3000ff0970065
:1041600081404000600b2100e1cf50000d003e0077
:10417000200b21000b0037000000e0000f0034008e
:1041800030002000400f9800b1c9b3000ff1970034
:1041900081404100e00b2100e1cf500001003e00d2
:1041a000a00b2100fe009000b0487800b0687800b5
:1041b0001040780090409800f70037000000e000c1
:1041c00005003a0022fb2f000f0141000019780082
:1041d0008001eb00eb0037006022b8006033b800cc
:1041e0000800be000a01be00a3fb07000000e000bb
:1041f00001003d000bf0a200705927009f98970026
:104200000088b900026a280013002000fefb0700a6
:10421000640650009c9f9f0015003b00630616003b
:10422000c0ff2f00000666008c01ea00939f9f00ec
:104230002d0c21000800be000a01be000900370055
:104240000c08a300050032001d0278009d029000ba
:104250002d039000bd0390008dfc07000c86d1005b
:10426000e88646000c00e000f5ff3c001a0037002d
:104270000c00e0001a003200c0ff2f0000066600ac
:104280009c9f9f002d0c21006000b80002002000c0
:1042900003ff2300090037000c08a30005003200cb
:1042a0001d0278009d0290002d039000bd03900038
:1042b00077fc07000c86d100e88646000c00e00081
:1042c000f5ff3c000002be000203be000800be0075
:1042d0000a01be0072fb07000004be000205be001a
:1042e0008e10900060c6b3000ff29700804f52000e
:1042f000040032006000200062c4b300824f52000c
:1043000002003a009f9a97006a80420081004000b4
:10431000f1b79f0001037800f30f5300020034004f
:1043200037012000f7b79f0000c3b300c0779f009c
:1043300056fb2f000f0343000e007800a0b79f002c
:10434000060778003d0037000800be000a01be00e5
:1043500020fc07000006be007fb1970068015100f5
:10436000f2b79f004240a9000c00340045fc070052
:104370000002be000203be000800be000a01be002b
:10438000b9fc07006022b80046782d007719240098
:104390003ffc07000004be000205be00e800470025
:1043a0008e0020000802be000a03be00b4b79f00c2
:1043b000c5b79f00d6b79f00e7b79f000c01be00ae
:1043c000010478000c003700a40020000500200044
:1043d000c0fd2f000f00400092f707006fa8970064
:1043e000ffa897000fb197009fb1970005c3b300d6
:1043f000056441000001be00e00f5100e08f59004c
:10440000030034000e07e900e10f4700eeff3a0019
:10441000880078003fb49700cfb497005fb597004d
:10442000efb597000200370000c3b300806078004a
:104430000e07e900fcff3b00688740007fb3970050
:104440000600e000070034006022b8006033b800c6
:104450000800be000a01be000cfb07000000e000df
:10446000b9ff3c000e0378002fb7970051fb2f00d7
:104470008f804000010353009f9b9700678043009b
:10448000909f9f00020037000603e9000000e9004a
:10449000010178008200780003c3b300b1cf11009e
:1044a000f9ff3200909f9f008e11900061c6b3000b
:1044b0000ff29700814f52000300320061c4b30035
:1044c000814f520002003a000000e8000a00370065
:1044d0001000200051c6b3008ff2970081cf520028
:1044e000050032000540780050c4b2000080fb0097
:1044f0000000e9004f00de0083014000868f51007c
:1045000001003400860178000300e0001d00350042
:1045100000c3b300868f510006003d000302410036
:104520006940400041c3b30094cf100001003c003b
:10453000694050008300e90081004100010037001c
:10454000840178000302e90001037800a1427800a9
:1045500080cf5200faff320091c3b300814f500068
:1045600001003a00054be8000400e00005003d00b2
:104570000201e9008301e8001f9b97000603e800a1
:10458000969f9f008ff397008700fb001f9a97006c
:104590000e007800060007004f0778004f06be00a7
:1045a0004f05be004f04be002f04b10000000600fe
:1045b000f0874700889fbe008a9fbe008c9fbe0088
:1045c0008e1f780000047800814478000205be0048
:1045d000040678000b00e00002003c001b002000f5
:1045e000aa14210060c6b30080cf54000e00320030
:1045f00060c4b30080cf54000b00320070c6b3001b
:1046000080cf54000300320070c4b30080cf540048
:1046100085003a00e40f4600830035000810900042
:10462000800f560080003d000c06e80060c6b30015
:1046300080cf54001000320060c4b30080cf54001b
:104640000d003200381090000038a30004003a003a
:1046500008109000808f550001003d000b14980059
:10466000081090000c0050000014980002003b005d
:104670000000eb0000149800c8089000780090003b
:104680000c00e00028003c000100400002c3b30021
:10469000024878008100e800410c98000810900062
:1046a0000000e00003003c00381090000038a30038
:1046b000060032007800900001004000e2c2b30022
:1046c000024878008100e800410c98000810900032
:1046d0008c00ea00810f500001003d000006ea0056
:1046e0008c00ea00510c9800000646000c1498005b
:1046f0008b0f5600010034000b0678006c0c9800fc
:10470000f800900048089000008040000c017800fc
:104710008a007800e2f60700081090000c065000ae
:104720007c0c9800940037008c8f550019003d00d8
:10473000010040000b0178008a007800d8f60700dd
:104740004808900000804500400c98008b055600fa
:104750005b0c9800881090000100e00003003c0012
:10476000b81090000138a30007003200f800900054
:1047700000804000e1c2b300014878006808900062
:104780000000e800600c980008109000700c980081
:1047900079003700010040000c0178008a007800a1
:1047a000bff607004808900000004600400c980043
:1047b0008c855500881090000100e00003003c004b
:1047c000b81090000138a30006003200f8009000f5
:1047d00080804000e2c2b300824878000000e80018
:1047e000400c980008109000808f550001003400a4
:1047f00080057800f8009000480890000080400094
:104800008c0045000b017800a5f6070048089000d1
:104810000b004000400c9800081090008b055000e1
:104820005b0c98005400370048089000f800900096
:10483000808040009a4878000000e800400c980012
:10484000881090000100e00003003c00b8109000c8
:104850000138a30006003200f8009000808040007c
:10486000e2c2b300824878000000e800400c9800e3
:10487000081090000000e000100034008b05e900f3
:10488000808f55000100340080057800f80090000a
:1048900048089000008040008a00e8000b01780082
:1048a0007ff60700480890000b004000400c98007d
:1048b000081090008b0550005b0c9800f8009000e9
:1048c0004808900000804000095878000007e80080
:1048d0000c00e00004003500b1c2b30001487800cc
:1048e0008e04780004003700d1c2b300014878007c
:1048f0008e0478000c06ea007d8557008006eb00e8
:1049000009003700a20020008c0078007280570058
:1049100062f507007fb097008fb89700016d7800af
:10492000000678008d06e8000c00e000f5ff3c0072
:104930000d00e00009003a008e04780000c3b300c7
:10494000805c7800050037008d06e900fc80570088
:104950000d80400001c3b30090dc40000d00e0007a
:10496000f9ff3c00f80090004808900000804000eb
:1049700080845400690c9800381090007400600026
:10498000f00f50000e003a00c80890002808900070
:1049900000804000d808900001004000e808900026
:1049a00001004000f808900001004000a8109000ad
:1049b000810f500002003d0000805000300c980034
:1049c0004f0778004f06be004f05be004f04be00e3
:0849d0000f01b1000000060018
:020000040000fa
:1049d800000000000000000000000000005f000070
:1049e800000000000007000000070000001400009d
:1049f8007f1400007f140000242a00007f2a000092
:104a08001223000013080000646200003649000009
:104a180055220000500000000503000000000000bf
:104a2800001c00002241000000000000412200009c
:104a38001c000000140800003e08000014080000d4
:104a4800083e000008080000005000003000000088
:104a580000080000080800000808000000600000c6
:104a680060000000002000001008000004020000a0
:104a78003e510000494500003e000000427f000012
:104a8800400000004261000051490000462100003a
:104a9800414500004b31000018140000127f00004f
:104aa8001027000045450000453900003c4a000039
:104ab80049490000300100007109000005030000a9
:104ac80036490000494900003606000049490000ff
:104ad800291e00000036000036000000000000001b
:104ae80056360000000000000814000022410000b3
:104af8000014000014140000141400000041000009
:104b080022140000080200000151000009060000fc
:104b180032490000794100003e7e0000111100007a
:104b2800117e00007f49000049490000363e000020
:104b380041410000412200007f4100004122000065
:104b48001c7f000049490000494100007f0900001e
:104b580009090000013e000041490000497a0000af
:104b68007f080000080800007f000000417f000067
:104b78004100000020400000413f0000017f00008c
:104b880008140000224100007f400000404000005f
:104b9800407f0000020c0000027f00007f0400003c
:104ba800081000007f3e000041410000413e000027
:104bb8007f09000009090000063e0000415100007d
:104bc800215e00007f090000192900004646000008
:104bd8004949000049310000010100007f0100003f
:104be800013f000040400000403f00001f2000003f
:104bf800402000001f3f000040380000403f0000f8
:104c08006314000008140000630700000870000027
:104c180008070000615100004945000043000000fa
:104c28007f4100004100000002040000081000005d
:104c380020000000414100007f0000000402000045
:104c48000102000004400000404000004040000015
:104c5800000100000204000000200000545400007d
:104c6800547800007f4800004444000038380000b1
:104c78004444000044200000384400004448000038
:104c88007f3800005454000054180000087e0000cb
:104c980009010000020c000052520000523e0000c0
:104ca8007f0800000404000078000000447d000034
:104cb8004000000020400000443d0000007f00004c
:104cc8001028000044000000004100007f40000060
:104cd800007c000004180000047800007c08000034
:104ce8000404000078380000444400004438000000
:104cf8007c140000141400000808000014140000bc
:104d0800187c00007c08000004040000084800002b
:104d18005454000054200000043f000044400000a8
:104d2800203c000040400000207c00001c200000c7
:104d3800402000001c3c000040300000403c0000c7
:104d48004428000010280000440c000050500000c7
:104d5800503c000044640000544c00004400000033
:104d68000836000041000000000000007f0000003d
:104d78000000000041360000080000001008000094
:104d8800081000000878000046410000467800003e
:104d9800801000001820000040840000fc840000ff
:104da80040200000181000008000000003110000df
:104db80031090000054300007f4300000509000099
:104dc800311100000300000000000000c0e00000f6
:104dd800301800000c0c000018300000e0c0000083
:104de80000000000000f00001f300000207c0000c1
:104df8007e7e00007c200000301f00000f000000b5
:104e080000800000e0f80000780c00000c0c0000a6
:104e18000c780000f8e0000080000000ffff0000b0
:104e2800ff000000000000000000000000ff00007c
:104e3800ffff0000000700001f7f000078c000008f
:104e4800c0c00000c07800007f1f000007000000fd
:104e58006060000060700000fcfc0000fc000000c6
:104e6800000000000000000000000000000000003a
:104e780000ff0000ffff000000000000000000002d
:104e880000000000c0c00000c0c00000ffff00001c
:104e9800ffc00000c0c00000c000000000380000d3
:104ea8001c1c00000c0c00000c0c00001c1c00005a
:104eb800f8f00000e0000000000000000000000022
:104ec80000c00000e0f00000fc7f00003f0f000081
:104ed800c0f00000f8fc0000decf0000c7c30000ef
:104ee800c1c00000c0c00000c000000038180000a9
:104ef8001c0c00000c0c00000c0c00001cf800003e
:104f0800f8f0000000000000000000000018000099
:104f1800181800001c3c000077f70000e370000040
:104f280070e00000e0c00000c0c00000c0e0000069
:104f3800e07800007f3f0000000000000000000053
:104f480000800000c0e00000703c0000fcfc000095
:104f5800fce00000f07800001e0f000007030000ce
:104f68000000000000ff0000ffff00000303000036
:104f78000303000003030000030300000303000011
:104f8800ffff0000fffc0000fcfc00000c0c000010
:104f98000c0c00000c0c00000c0c00000c0c0000a9
:104fa8000f0f00000f0c00000c0c00000c1c000080
:104fb8001c380000f8f00000e0000000e0e000000d
:104fc800c0c00000c0c00000e0e00000783f000062
:104fd8001f0f000000c00000e0f00000781c000077
:104fe8000c0c00000c0c00001c000000000000006d
:104ff800ffff0000181c00000c0c00000c1c000037
:105008001cf80000f0e00000071f00003f780000d7
:10501800e0c00000c0c00000e07000007f3f00005a
:105028001f0c00000c0c00000c0c00000c0c000005
:105038000c0c0000ccfc0000fc3c00000000000050
:105048000000000000800000f0fc00007f0f00005e
:10505800030000000000000080e00000f87e00006f
:105068001f07000001000000000000000000000011
:10507800c0f00000f83800001c0c00000c0c000008
:105088001c380000f8f00000c0c10000e7f700007d
:105098003f1e00001c1c0000181c00007ef70000ca
:1050a800e38000001f3f00007ff00000e0c0000028
:1050b800c0c00000e07000007f3f00001fe000005b
:1050c800f0f800001c0c00000c0c00001c1c000078
:1050d80078f00000e08000001f3f00003e700000f4
:1050e800606000006060000070300000ffff00009a
:1050f800ff600000e0c00000c0c00000c0e0000089
:10510800707800003e1f000007010000202000000a
:10511800202000005379000073740000656d0000c2
:105128002069000073200000707200006f670000a3
:10513800726100006d6d0000696e0000672000005c
:105148004c6f000077200000546500006d7000006f
:10515800657200006174000075720000650d000042
:105168000020000020200000205300007973000078
:10517800746500006d200000697300002070000055
:10518800726f000067720000616d00006d690000b9
:105198006e67000020480000696700006820000072
:1051a800546500006d7000006572000061740000b5
:1051b80075720000650d000000200000202000002e
:1051c800204c00006f77000020540000656d00003f
:1051d800706500007261000074750000726500005f
:1051e8002053000065740000746900006e670000b9
:1051f800203d0000202500002e300000663b000006
:105208002020000048690000676800002054000062
:10521800656d000070650000726100007475000023
:105228007265000020530000657400007469000076
:105238006e670000203d0000202500002e30000091
:10524800660d00000a000000202000002020000059
:105258005379000073740000656d00002069000038
:105268006e200000527500006e6e0000696e00002e
:10527800672000004d6f0000646500000d0000000d
:105288001b5b0000324a00001b5b00003b4800002b
:105298000042000045470000494e00004e4900000a
:1052a8004e470000204f0000462000004c4f0000f1
:1052b800470d00000a000000496e000069740000f4
:1052c800696100006c6900007a6900006e6700007f
:1052d8002053000079730000746500006d0d000014
:1052e8000020000020200000204300006f6e000016
:1052f8006669000067750000726900006e6700004b
:1053080020480000617200006477000061720000ac
:10531800650d0000004900006e6900007469000016
:10532800616c0000697a0000696e00006700000087
:10533800202000002020000053740000617200004b
:10534800742000004d650000617300007572000054
:10535800696e000067200000546500006d70000051
:10536800657200006174000075720000650d000030
:10537800002000002020000020530000746100007d
:105388007274000020740000686500002055000059
:10539800490d00000a0000005379000073740000f2
:1053a800656d00002055000070200000616e00004f
:1053b80064200000527500006e6e0000696e0000e7
:1053c800670d0000000000002020000020200000e1
:1053d800546500006d700000657200006174000083
:1053e8007572000065200000696e0000637200009d
:1053f800656100007365000064200000252e000030
:1054080032660000206400006567000072650000d5
:1054180065730000207400006f200000252e000036
:10542800326600000d0a0000002000002020000065
:1054380020540000656d0000706500007261000076
:105448007475000072650000206400006563000048
:10545800726500006173000065640000202500008b
:105468002e320000662000006465000067720000ac
:105478006565000073200000746f0000202500009f
:105488002e320000660d00000a000000252e0000e4
:1054980031660000002500002e3000006600000084
:1054a8002c0000002020000020200000486500009b
:1054b800617400002068000061730000207400001f
:1054c800757200006e650000642000006f6e0000b9
:1054d8000d0000002020000020200000436f000085
:1054e8006f6c0000696e00006720000068610000b2
:1054f8007320000074750000726e0000656400007f
:0c550800206f00006e0d0000000000008d
:020000040000fa
:105514000200fa00004f780011479800158ea90088
:105524009e40780061c060000080fb006100600064
:105534004e00dd00a170800001e0a10001007000b8
:10554400a07088001e4090000080fb00401288007c
:105554000000000000128000610060000000e00014
:10556400fcff320000000000158ea8000080fa0045
:10557400000006000400fa00204798008040eb0079
:1055840010c0b300e2ff07000000eb00000f78003a
:105594000c0037002e4090000000fb000002b10018
:1055a400e500b9001e004000c14e2a000080400002
:1055b400104078008040780010c0b300d4ff07008a
:1055c4001e0fe8001e007800e40f5000f1ff3400c5
:1055d4008040eb0010c0b300cdff07000080fa004c
:1055e400000006000200fa0061ccb3000040eb00aa
:1055f400c7ff070041c4b3000040eb00c4ff07002d
:105604000000eb00000f780007003700c06c2a0090
:105614001e004000104078008040780010c0b300a5
:10562400bbff07001e0fe8001e007800ed0f5000be
:10563400f6ff340061ccb3000040eb00b4ff070078
:1056440051c4b3000040eb00b1ff07000000eb00c1
:10565400000f7800090037009e0078006e8040003b
:10566400c16c2a000080400010407800804078001f
:1056740010c0b300a6ff07001e0fe8001e0078004c
:10568400ee0f5000f4ff34000080fa000000060022
